{
  "_format": "hh-sol-artifact-1",
  "contractName": "SupplyChain",
  "sourceName": "contracts/SupplyChain.sol",
  "abi": [
    {
      "anonymous": false,
      "inputs": [
        {
          "indexed": true,
          "internalType": "uint256",
          "name": "productId",
          "type": "uint256"
        },
        {
          "indexed": true,
          "internalType": "address",
          "name": "oldOwner",
          "type": "address"
        },
        {
          "indexed": true,
          "internalType": "address",
          "name": "newOwner",
          "type": "address"
        }
      ],
      "name": "OwnershipTransferred",
      "type": "event"
    },
    {
      "anonymous": false,
      "inputs": [
        {
          "indexed": true,
          "internalType": "uint256",
          "name": "productId",
          "type": "uint256"
        },
        {
          "indexed": false,
          "internalType": "string",
          "name": "name",
          "type": "string"
        },
        {
          "indexed": true,
          "internalType": "address",
          "name": "manufacturer",
          "type": "address"
        }
      ],
      "name": "ProductCreated",
      "type": "event"
    },
    {
      "anonymous": false,
      "inputs": [
        {
          "indexed": true,
          "internalType": "uint256",
          "name": "productId",
          "type": "uint256"
        },
        {
          "indexed": false,
          "internalType": "enum SupplyChain.Status",
          "name": "newStatus",
          "type": "uint8"
        }
      ],
      "name": "StatusUpdated",
      "type": "event"
    },
    {
      "inputs": [
        {
          "internalType": "string",
          "name": "_name",
          "type": "string"
        },
        {
          "internalType": "string",
          "name": "_description",
          "type": "string"
        }
      ],
      "name": "createProduct",
      "outputs": [
        {
          "internalType": "uint256",
          "name": "",
          "type": "uint256"
        }
      ],
      "stateMutability": "nonpayable",
      "type": "function"
    },
    {
      "inputs": [
        {
          "internalType": "uint256",
          "name": "_productId",
          "type": "uint256"
        }
      ],
      "name": "getProduct",
      "outputs": [
        {
          "internalType": "uint256",
          "name": "id",
          "type": "uint256"
        },
        {
          "internalType": "string",
          "name": "name",
          "type": "string"
        },
        {
          "internalType": "string",
          "name": "description",
          "type": "string"
        },
        {
          "internalType": "address",
          "name": "currentOwner",
          "type": "address"
        },
        {
          "internalType": "enum SupplyChain.Status",
          "name": "status",
          "type": "uint8"
        },
        {
          "internalType": "uint256",
          "name": "createdAt",
          "type": "uint256"
        }
      ],
      "stateMutability": "view",
      "type": "function"
    },
    {
      "inputs": [
        {
          "internalType": "uint256",
          "name": "_productId",
          "type": "uint256"
        }
      ],
      "name": "getProductHistory",
      "outputs": [
        {
          "internalType": "address[]",
          "name": "",
          "type": "address[]"
        },
        {
          "internalType": "uint256[]",
          "name": "",
          "type": "uint256[]"
        }
      ],
      "stateMutability": "view",
      "type": "function"
    },
    {
      "inputs": [],
      "name": "productCount",
      "outputs": [
        {
          "internalType": "uint256",
          "name": "",
          "type": "uint256"
        }
      ],
      "stateMutability": "view",
      "type": "function"
    },
    {
      "inputs": [
        {
          "internalType": "uint256",
          "name": "",
          "type": "uint256"
        }
      ],
      "name": "products",
      "outputs": [
        {
          "internalType": "uint256",
          "name": "id",
          "type": "uint256"
        },
        {
          "internalType": "string",
          "name": "name",
          "type": "string"
        },
        {
          "internalType": "string",
          "name": "description",
          "type": "string"
        },
        {
          "internalType": "address",
          "name": "currentOwner",
          "type": "address"
        },
        {
          "internalType": "enum SupplyChain.Status",
          "name": "status",
          "type": "uint8"
        },
        {
          "internalType": "uint256",
          "name": "createdAt",
          "type": "uint256"
        }
      ],
      "stateMutability": "view",
      "type": "function"
    },
    {
      "inputs": [
        {
          "internalType": "uint256",
          "name": "_productId",
          "type": "uint256"
        },
        {
          "internalType": "address",
          "name": "_newOwner",
          "type": "address"
        }
      ],
      "name": "transferProduct",
      "outputs": [],
      "stateMutability": "nonpayable",
      "type": "function"
    },
    {
      "inputs": [
        {
          "internalType": "uint256",
          "name": "_productId",
          "type": "uint256"
        },
        {
          "internalType": "enum SupplyChain.Status",
          "name": "_status",
          "type": "uint8"
        }
      ],
      "name": "updateStatus",
      "outputs": [],
      "stateMutability": "nonpayable",
      "type": "function"
    }
  ],
  "bytecode": "0x608060405234801561001057600080fd5b50611c89806100206000396000f3fe608060405234801561001057600080fd5b506004361061007d5760003560e01c806387592bce1161005b57806387592bce14610104578063b9db15b414610134578063e0f6ef8714610169578063e43059e5146101875761007d565b80633a1b3d311461008257806357a096a11461009e5780637acc0b20146100cf575b600080fd5b61009c60048036038101906100979190611065565b6101a3565b005b6100b860048036038101906100b391906110a5565b61037d565b6040516100c6929190611280565b60405180910390f35b6100e960048036038101906100e491906110a5565b6106b6565b6040516100fb969594939291906113dc565b60405180910390f35b61011e60048036038101906101199190611580565b61082f565b60405161012b91906115f8565b60405180910390f35b61014e600480360381019061014991906110a5565b6109f6565b604051610160969594939291906113dc565b60405180910390f35b610171610d55565b60405161017e91906115f8565b60405180910390f35b6101a1600480360381019061019c919061163f565b610d5b565b005b6000821180156101b557506001548211155b6101f4576040517f08c379a00000000000000000000000000000000000000000000000000000000081526004016101eb906116cb565b60405180910390fd5b600080600084815260200190815260200160002090503373ffffffffffffffffffffffffffffffffffffffff168160030160009054906101000a900473ffffffffffffffffffffffffffffffffffffffff1673ffffffffffffffffffffffffffffffffffffffff161461029c576040517f08c379a00000000000000000000000000000000000000000000000000000000081526004016102939061175d565b60405180910390fd5b8060030160149054906101000a900460ff1660028111156102c0576102bf611365565b5b8260028111156102d3576102d2611365565b5b1015610314576040517f08c379a000000000000000000000000000000000000000000000000000000000815260040161030b906117c9565b60405180910390fd5b818160030160146101000a81548160ff0219169083600281111561033b5761033a611365565b5b0217905550827f2da7b23ca63c1eb969eee5fae4acb98186abecf5358b0354a82a5183ebca6b2a8360405161037091906117e9565b60405180910390a2505050565b60608060008311801561039257506001548311155b6103d1576040517f08c379a00000000000000000000000000000000000000000000000000000000081526004016103c8906116cb565b60405180910390fd5b6000806000858152602001908152602001600020604051806101000160405290816000820154815260200160018201805461040b90611833565b80601f016020809104026020016040519081016040528092919081815260200182805461043790611833565b80156104845780601f1061045957610100808354040283529160200191610484565b820191906000526020600020905b81548152906001019060200180831161046757829003601f168201915b5050505050815260200160028201805461049d90611833565b80601f01602080910402602001604051908101604052809291908181526020018280546104c990611833565b80156105165780601f106104eb57610100808354040283529160200191610516565b820191906000526020600020905b8154815290600101906020018083116104f957829003601f168201915b505050505081526020016003820160009054906101000a900473ffffffffffffffffffffffffffffffffffffffff1673ffffffffffffffffffffffffffffffffffffffff1673ffffffffffffffffffffffffffffffffffffffff1681526020016003820160149054906101000a900460ff16600281111561059a57610599611365565b5b60028111156105ac576105ab611365565b5b8152602001600482015481526020016005820180548060200260200160405190810160405280929190818152602001828054801561063f57602002820191906000526020600020905b8160009054906101000a900473ffffffffffffffffffffffffffffffffffffffff1673ffffffffffffffffffffffffffffffffffffffff16815260200190600101908083116105f5575b505050505081526020016006820180548060200260200160405190810160405280929190818152602001828054801561069757602002820191906000526020600020905b815481526020019060010190808311610683575b50505050508152505090508060c001518160e001519250925050915091565b60006020528060005260406000206000915090508060000154908060010180546106df90611833565b80601f016020809104026020016040519081016040528092919081815260200182805461070b90611833565b80156107585780601f1061072d57610100808354040283529160200191610758565b820191906000526020600020905b81548152906001019060200180831161073b57829003601f168201915b50505050509080600201805461076d90611833565b80601f016020809104026020016040519081016040528092919081815260200182805461079990611833565b80156107e65780601f106107bb576101008083540402835291602001916107e6565b820191906000526020600020905b8154815290600101906020018083116107c957829003601f168201915b5050505050908060030160009054906101000a900473ffffffffffffffffffffffffffffffffffffffff16908060030160149054906101000a900460ff16908060040154905086565b60006001600081548092919061084490611893565b919050555060008060006001548152602001908152602001600020905060015481600001819055508381600101908161087d9190611a87565b508281600201908161088f9190611a87565b50338160030160006101000a81548173ffffffffffffffffffffffffffffffffffffffff021916908373ffffffffffffffffffffffffffffffffffffffff16021790555060008160030160146101000a81548160ff021916908360028111156108fb576108fa611365565b5b021790555042816004018190555080600501339080600181540180825580915050600190039060005260206000200160009091909190916101000a81548173ffffffffffffffffffffffffffffffffffffffff021916908373ffffffffffffffffffffffffffffffffffffffff160217905550806006014290806001815401808255809150506001900390600052602060002001600090919091909150553373ffffffffffffffffffffffffffffffffffffffff166001547faf6ffb6277511513e7d579327cc1fc57f0266df2fb11a60b13487b8c9cd2c388866040516109e29190611b59565b60405180910390a360015491505092915050565b600060608060008060008087118015610a1157506001548711155b610a50576040517f08c379a0000000000000000000000000000000000000000000000000000000008152600401610a47906116cb565b60405180910390fd5b60008060008981526020019081526020016000206040518061010001604052908160008201548152602001600182018054610a8a90611833565b80601f0160208091040260200160405190810160405280929190818152602001828054610ab690611833565b8015610b035780601f10610ad857610100808354040283529160200191610b03565b820191906000526020600020905b815481529060010190602001808311610ae657829003601f168201915b50505050508152602001600282018054610b1c90611833565b80601f0160208091040260200160405190810160405280929190818152602001828054610b4890611833565b8015610b955780601f10610b6a57610100808354040283529160200191610b95565b820191906000526020600020905b815481529060010190602001808311610b7857829003601f168201915b505050505081526020016003820160009054906101000a900473ffffffffffffffffffffffffffffffffffffffff1673ffffffffffffffffffffffffffffffffffffffff1673ffffffffffffffffffffffffffffffffffffffff1681526020016003820160149054906101000a900460ff166002811115610c1957610c18611365565b5b6002811115610c2b57610c2a611365565b5b81526020016004820154815260200160058201805480602002602001604051908101604052809291908181526020018280548015610cbe57602002820191906000526020600020905b8160009054906101000a900473ffffffffffffffffffffffffffffffffffffffff1673ffffffffffffffffffffffffffffffffffffffff1681526020019060010190808311610c74575b5050505050815260200160068201805480602002602001604051908101604052809291908181526020018280548015610d1657602002820191906000526020600020905b815481526020019060010190808311610d02575b5050505050815250509050806000015181602001518260400151836060015184608001518560a001519650965096509650965096505091939550919395565b60015481565b600082118015610d6d57506001548211155b610dac576040517f08c379a0000000000000000000000000000000000000000000000000000000008152600401610da3906116cb565b60405180910390fd5b600080600084815260200190815260200160002090503373ffffffffffffffffffffffffffffffffffffffff168160030160009054906101000a900473ffffffffffffffffffffffffffffffffffffffff1673ffffffffffffffffffffffffffffffffffffffff1614610e54576040517f08c379a0000000000000000000000000000000000000000000000000000000008152600401610e4b90611bc7565b60405180910390fd5b600073ffffffffffffffffffffffffffffffffffffffff168273ffffffffffffffffffffffffffffffffffffffff1603610ec3576040517f08c379a0000000000000000000000000000000000000000000000000000000008152600401610eba90611c33565b60405180910390fd5b818160030160006101000a81548173ffffffffffffffffffffffffffffffffffffffff021916908373ffffffffffffffffffffffffffffffffffffffff16021790555080600501829080600181540180825580915050600190039060005260206000200160009091909190916101000a81548173ffffffffffffffffffffffffffffffffffffffff021916908373ffffffffffffffffffffffffffffffffffffffff160217905550806006014290806001815401808255809150506001900390600052602060002001600090919091909150558173ffffffffffffffffffffffffffffffffffffffff163373ffffffffffffffffffffffffffffffffffffffff16847f16b85f49bf01212961345d3016c9a531894accf62eb7680f2045d79185cc0ec060405160405180910390a4505050565b6000604051905090565b600080fd5b600080fd5b6000819050919050565b61101d8161100a565b811461102857600080fd5b50565b60008135905061103a81611014565b92915050565b6003811061104d57600080fd5b50565b60008135905061105f81611040565b92915050565b6000806040838503121561107c5761107b611000565b5b600061108a8582860161102b565b925050602061109b85828601611050565b9150509250929050565b6000602082840312156110bb576110ba611000565b5b60006110c98482850161102b565b91505092915050565b600081519050919050565b600082825260208201905092915050565b6000819050602082019050919050565b600073ffffffffffffffffffffffffffffffffffffffff82169050919050565b6000611129826110fe565b9050919050565b6111398161111e565b82525050565b600061114b8383611130565b60208301905092915050565b6000602082019050919050565b600061116f826110d2565b61117981856110dd565b9350611184836110ee565b8060005b838110156111b557815161119c888261113f565b97506111a783611157565b925050600181019050611188565b5085935050505092915050565b600081519050919050565b600082825260208201905092915050565b6000819050602082019050919050565b6111f78161100a565b82525050565b600061120983836111ee565b60208301905092915050565b6000602082019050919050565b600061122d826111c2565b61123781856111cd565b9350611242836111de565b8060005b8381101561127357815161125a88826111fd565b975061126583611215565b925050600181019050611246565b5085935050505092915050565b6000604082019050818103600083015261129a8185611164565b905081810360208301526112ae8184611222565b90509392505050565b6112c08161100a565b82525050565b600081519050919050565b600082825260208201905092915050565b60005b838110156113005780820151818401526020810190506112e5565b60008484015250505050565b6000601f19601f8301169050919050565b6000611328826112c6565b61133281856112d1565b93506113428185602086016112e2565b61134b8161130c565b840191505092915050565b61135f8161111e565b82525050565b7f4e487b7100000000000000000000000000000000000000000000000000000000600052602160045260246000fd5b600381106113a5576113a4611365565b5b50565b60008190506113b682611394565b919050565b60006113c6826113a8565b9050919050565b6113d6816113bb565b82525050565b600060c0820190506113f160008301896112b7565b8181036020830152611403818861131d565b90508181036040830152611417818761131d565b90506114266060830186611356565b61143360808301856113cd565b61144060a08301846112b7565b979650505050505050565b600080fd5b600080fd5b7f4e487b7100000000000000000000000000000000000000000000000000000000600052604160045260246000fd5b61148d8261130c565b810181811067ffffffffffffffff821117156114ac576114ab611455565b5b80604052505050565b60006114bf610ff6565b90506114cb8282611484565b919050565b600067ffffffffffffffff8211156114eb576114ea611455565b5b6114f48261130c565b9050602081019050919050565b82818337600083830152505050565b600061152361151e846114d0565b6114b5565b90508281526020810184848401111561153f5761153e611450565b5b61154a848285611501565b509392505050565b600082601f8301126115675761156661144b565b5b8135611577848260208601611510565b91505092915050565b6000806040838503121561159757611596611000565b5b600083013567ffffffffffffffff8111156115b5576115b4611005565b5b6115c185828601611552565b925050602083013567ffffffffffffffff8111156115e2576115e1611005565b5b6115ee85828601611552565b9150509250929050565b600060208201905061160d60008301846112b7565b92915050565b61161c8161111e565b811461162757600080fd5b50565b60008135905061163981611613565b92915050565b6000806040838503121561165657611655611000565b5b60006116648582860161102b565b92505060206116758582860161162a565b9150509250929050565b7f50726f6475637420646f6573206e6f7420657869737400000000000000000000600082015250565b60006116b56016836112d1565b91506116c08261167f565b602082019050919050565b600060208201905081810360008301526116e4816116a8565b9050919050565b7f4f6e6c792063757272656e74206f776e65722063616e2075706461746520737460008201527f6174757300000000000000000000000000000000000000000000000000000000602082015250565b60006117476024836112d1565b9150611752826116eb565b604082019050919050565b600060208201905081810360008301526117768161173a565b9050919050565b7f43616e6e6f742072657665727420737461747573000000000000000000000000600082015250565b60006117b36014836112d1565b91506117be8261177d565b602082019050919050565b600060208201905081810360008301526117e2816117a6565b9050919050565b60006020820190506117fe60008301846113cd565b92915050565b7f4e487b7100000000000000000000000000000000000000000000000000000000600052602260045260246000fd5b6000600282049050600182168061184b57607f821691505b60208210810361185e5761185d611804565b5b50919050565b7f4e487b7100000000000000000000000000000000000000000000000000000000600052601160045260246000fd5b600061189e8261100a565b91507fffffffffffffffffffffffffffffffffffffffffffffffffffffffffffffffff82036118d0576118cf611864565b5b600182019050919050565b60008190508160005260206000209050919050565b60006020601f8301049050919050565b600082821b905092915050565b60006008830261193d7fffffffffffffffffffffffffffffffffffffffffffffffffffffffffffffffff82611900565b6119478683611900565b95508019841693508086168417925050509392505050565b6000819050919050565b600061198461197f61197a8461100a565b61195f565b61100a565b9050919050565b6000819050919050565b61199e83611969565b6119b26119aa8261198b565b84845461190d565b825550505050565b600090565b6119c76119ba565b6119d2818484611995565b505050565b5b818110156119f6576119eb6000826119bf565b6001810190506119d8565b5050565b601f821115611a3b57611a0c816118db565b611a15846118f0565b81016020851015611a24578190505b611a38611a30856118f0565b8301826119d7565b50505b505050565b600082821c905092915050565b6000611a5e60001984600802611a40565b1980831691505092915050565b6000611a778383611a4d565b9150826002028217905092915050565b611a90826112c6565b67ffffffffffffffff811115611aa957611aa8611455565b5b611ab38254611833565b611abe8282856119fa565b600060209050601f831160018114611af15760008415611adf578287015190505b611ae98582611a6b565b865550611b51565b601f198416611aff866118db565b60005b82811015611b2757848901518255600182019150602085019450602081019050611b02565b86831015611b445784890151611b40601f891682611a4d565b8355505b6001600288020188555050505b505050505050565b60006020820190508181036000830152611b73818461131d565b905092915050565b7f4f6e6c792063757272656e74206f776e65722063616e207472616e7366657200600082015250565b6000611bb1601f836112d1565b9150611bbc82611b7b565b602082019050919050565b60006020820190508181036000830152611be081611ba4565b9050919050565b7f496e76616c696420616464726573730000000000000000000000000000000000600082015250565b6000611c1d600f836112d1565b9150611c2882611be7565b602082019050919050565b60006020820190508181036000830152611c4c81611c10565b905091905056fea2646970667358221220e6b95bd8dfdd15b49583de869002f70024eb61824313c576684b15d94dadfd4c64736f6c63430008130033",
  "linkReferences": {},
  "deployedLinkReferences": {}
}